{
  "_format": "hh-sol-artifact-1",
  "contractName": "FBB",
  "sourceName": "contracts/FBB.sol",
  "abi": [
    {
      "inputs": [
        {
          "internalType": "address",
          "name": "fbtToken",
          "type": "address"
        }
      ],
      "stateMutability": "nonpayable",
      "type": "constructor"
    },
    {
      "anonymous": false,
      "inputs": [
        {
          "indexed": true,
          "internalType": "address",
          "name": "owner",
          "type": "address"
        },
        {
          "indexed": true,
          "internalType": "address",
          "name": "approved",
          "type": "address"
        },
        {
          "indexed": true,
          "internalType": "uint256",
          "name": "tokenId",
          "type": "uint256"
        }
      ],
      "name": "Approval",
      "type": "event"
    },
    {
      "anonymous": false,
      "inputs": [
        {
          "indexed": true,
          "internalType": "address",
          "name": "owner",
          "type": "address"
        },
        {
          "indexed": true,
          "internalType": "address",
          "name": "operator",
          "type": "address"
        },
        {
          "indexed": false,
          "internalType": "bool",
          "name": "approved",
          "type": "bool"
        }
      ],
      "name": "ApprovalForAll",
      "type": "event"
    },
    {
      "anonymous": false,
      "inputs": [
        {
          "indexed": true,
          "internalType": "address",
          "name": "to",
          "type": "address"
        },
        {
          "indexed": false,
          "internalType": "uint8",
          "name": "boxType",
          "type": "uint8"
        },
        {
          "indexed": false,
          "internalType": "uint256",
          "name": "tokenId",
          "type": "uint256"
        }
      ],
      "name": "MintBirdBox",
      "type": "event"
    },
    {
      "anonymous": false,
      "inputs": [
        {
          "indexed": true,
          "internalType": "address",
          "name": "from",
          "type": "address"
        },
        {
          "indexed": true,
          "internalType": "address",
          "name": "to",
          "type": "address"
        },
        {
          "indexed": true,
          "internalType": "uint256",
          "name": "tokenId",
          "type": "uint256"
        }
      ],
      "name": "Transfer",
      "type": "event"
    },
    {
      "inputs": [
        {
          "internalType": "address",
          "name": "to",
          "type": "address"
        },
        {
          "internalType": "uint256",
          "name": "tokenId",
          "type": "uint256"
        }
      ],
      "name": "approve",
      "outputs": [],
      "stateMutability": "nonpayable",
      "type": "function"
    },
    {
      "inputs": [
        {
          "internalType": "address",
          "name": "owner",
          "type": "address"
        }
      ],
      "name": "balanceOf",
      "outputs": [
        {
          "internalType": "uint256",
          "name": "",
          "type": "uint256"
        }
      ],
      "stateMutability": "view",
      "type": "function"
    },
    {
      "inputs": [
        {
          "internalType": "uint256",
          "name": "tokenId",
          "type": "uint256"
        }
      ],
      "name": "getApproved",
      "outputs": [
        {
          "internalType": "address",
          "name": "",
          "type": "address"
        }
      ],
      "stateMutability": "view",
      "type": "function"
    },
    {
      "inputs": [],
      "name": "getOwnerNFT",
      "outputs": [
        {
          "components": [
            {
              "internalType": "uint256",
              "name": "tokenId",
              "type": "uint256"
            },
            {
              "internalType": "address payable",
              "name": "owner",
              "type": "address"
            }
          ],
          "internalType": "struct FBB.NFTItem[]",
          "name": "",
          "type": "tuple[]"
        }
      ],
      "stateMutability": "view",
      "type": "function"
    },
    {
      "inputs": [
        {
          "internalType": "address",
          "name": "owner",
          "type": "address"
        },
        {
          "internalType": "address",
          "name": "operator",
          "type": "address"
        }
      ],
      "name": "isApprovedForAll",
      "outputs": [
        {
          "internalType": "bool",
          "name": "",
          "type": "bool"
        }
      ],
      "stateMutability": "view",
      "type": "function"
    },
    {
      "inputs": [
        {
          "internalType": "uint8",
          "name": "boxType",
          "type": "uint8"
        }
      ],
      "name": "mintBirdBox",
      "outputs": [
        {
          "internalType": "string",
          "name": "",
          "type": "string"
        }
      ],
      "stateMutability": "nonpayable",
      "type": "function"
    },
    {
      "inputs": [],
      "name": "name",
      "outputs": [
        {
          "internalType": "string",
          "name": "",
          "type": "string"
        }
      ],
      "stateMutability": "view",
      "type": "function"
    },
    {
      "inputs": [
        {
          "internalType": "uint256",
          "name": "tokenId",
          "type": "uint256"
        }
      ],
      "name": "ownerOf",
      "outputs": [
        {
          "internalType": "address",
          "name": "",
          "type": "address"
        }
      ],
      "stateMutability": "view",
      "type": "function"
    },
    {
      "inputs": [
        {
          "internalType": "address",
          "name": "from",
          "type": "address"
        },
        {
          "internalType": "address",
          "name": "to",
          "type": "address"
        },
        {
          "internalType": "uint256",
          "name": "tokenId",
          "type": "uint256"
        }
      ],
      "name": "safeTransferFrom",
      "outputs": [],
      "stateMutability": "nonpayable",
      "type": "function"
    },
    {
      "inputs": [
        {
          "internalType": "address",
          "name": "from",
          "type": "address"
        },
        {
          "internalType": "address",
          "name": "to",
          "type": "address"
        },
        {
          "internalType": "uint256",
          "name": "tokenId",
          "type": "uint256"
        },
        {
          "internalType": "bytes",
          "name": "_data",
          "type": "bytes"
        }
      ],
      "name": "safeTransferFrom",
      "outputs": [],
      "stateMutability": "nonpayable",
      "type": "function"
    },
    {
      "inputs": [
        {
          "internalType": "address",
          "name": "operator",
          "type": "address"
        },
        {
          "internalType": "bool",
          "name": "approved",
          "type": "bool"
        }
      ],
      "name": "setApprovalForAll",
      "outputs": [],
      "stateMutability": "nonpayable",
      "type": "function"
    },
    {
      "inputs": [
        {
          "internalType": "bytes4",
          "name": "interfaceId",
          "type": "bytes4"
        }
      ],
      "name": "supportsInterface",
      "outputs": [
        {
          "internalType": "bool",
          "name": "",
          "type": "bool"
        }
      ],
      "stateMutability": "view",
      "type": "function"
    },
    {
      "inputs": [],
      "name": "symbol",
      "outputs": [
        {
          "internalType": "string",
          "name": "",
          "type": "string"
        }
      ],
      "stateMutability": "view",
      "type": "function"
    },
    {
      "inputs": [
        {
          "internalType": "uint256",
          "name": "index",
          "type": "uint256"
        }
      ],
      "name": "tokenByIndex",
      "outputs": [
        {
          "internalType": "uint256",
          "name": "",
          "type": "uint256"
        }
      ],
      "stateMutability": "view",
      "type": "function"
    },
    {
      "inputs": [
        {
          "internalType": "address",
          "name": "owner",
          "type": "address"
        },
        {
          "internalType": "uint256",
          "name": "index",
          "type": "uint256"
        }
      ],
      "name": "tokenOfOwnerByIndex",
      "outputs": [
        {
          "internalType": "uint256",
          "name": "",
          "type": "uint256"
        }
      ],
      "stateMutability": "view",
      "type": "function"
    },
    {
      "inputs": [
        {
          "internalType": "uint256",
          "name": "tokenId",
          "type": "uint256"
        }
      ],
      "name": "tokenURI",
      "outputs": [
        {
          "internalType": "string",
          "name": "",
          "type": "string"
        }
      ],
      "stateMutability": "view",
      "type": "function"
    },
    {
      "inputs": [],
      "name": "totalSupply",
      "outputs": [
        {
          "internalType": "uint256",
          "name": "",
          "type": "uint256"
        }
      ],
      "stateMutability": "view",
      "type": "function"
    },
    {
      "inputs": [
        {
          "internalType": "address",
          "name": "from",
          "type": "address"
        },
        {
          "internalType": "address",
          "name": "to",
          "type": "address"
        },
        {
          "internalType": "uint256",
          "name": "tokenId",
          "type": "uint256"
        }
      ],
      "name": "transferFrom",
      "outputs": [],
      "stateMutability": "nonpayable",
      "type": "function"
    }
  ],
  "bytecode": "0x60e0604052602d608081815290620021d360a03980516200002991600e91602090910190620000f0565b503480156200003757600080fd5b5060405162002200380380620022008339810160408190526200005a9162000196565b604080518082018252600981526808c8492a48840849eb60bb1b60208083019182528351808501909452600384526223212160e91b908401528151919291620000a691600091620000f0565b508051620000bc906001906020840190620000f0565b5050600c80546001600160a01b039093166001600160a01b03199384168117909155600d8054909316179091555062000203565b828054620000fe90620001c6565b90600052602060002090601f0160209004810192826200012257600085556200016d565b82601f106200013d57805160ff19168380011785556200016d565b828001600101855582156200016d579182015b828111156200016d57825182559160200191906001019062000150565b506200017b9291506200017f565b5090565b5b808211156200017b576000815560010162000180565b600060208284031215620001a8578081fd5b81516001600160a01b0381168114620001bf578182fd5b9392505050565b600181811c90821680620001db57607f821691505b60208210811415620001fd57634e487b7160e01b600052602260045260246000fd5b50919050565b611fc080620002136000396000f3fe608060405234801561001057600080fd5b50600436106101165760003560e01c80636352211e116100a2578063a22cb46511610071578063a22cb46514610237578063b88d4fde1461024a578063c87b56dd1461025d578063d7895bf014610270578063e985e9c51461028557600080fd5b80636352211e146101f65780636f4385841461020957806370a082311461021c57806395d89b411461022f57600080fd5b806318160ddd116100e957806318160ddd1461019857806323b872dd146101aa5780632f745c59146101bd57806342842e0e146101d05780634f6ccce7146101e357600080fd5b806301ffc9a71461011b57806306fdde0314610143578063081812fc14610158578063095ea7b314610183575b600080fd5b61012e610129366004611b76565b6102c1565b60405190151581526020015b60405180910390f35b61014b6102d2565b60405161013a9190611d92565b61016b610166366004611bae565b610364565b6040516001600160a01b03909116815260200161013a565b610196610191366004611b31565b6103fe565b005b6009545b60405190815260200161013a565b6101966101b83660046119eb565b610514565b61019c6101cb366004611b31565b610545565b6101966101de3660046119eb565b6105db565b61019c6101f1366004611bae565b6105f6565b61016b610204366004611bae565b610697565b61014b610217366004611bde565b61070e565b61019c61022a366004611998565b610a23565b61014b610aaa565b610196610245366004611afb565b610ab9565b610196610258366004611a26565b610ac8565b61014b61026b366004611bae565b610b00565b610278610c1e565b60405161013a9190611d3a565b61012e6102933660046119b9565b6001600160a01b03918216600090815260056020908152604080832093909416825291909152205460ff1690565b60006102cc82610dd6565b92915050565b6060600080546102e190611eb7565b80601f016020809104026020016040519081016040528092919081815260200182805461030d90611eb7565b801561035a5780601f1061032f5761010080835404028352916020019161035a565b820191906000526020600020905b81548152906001019060200180831161033d57829003601f168201915b5050505050905090565b6000818152600260205260408120546001600160a01b03166103e25760405162461bcd60e51b815260206004820152602c60248201527f4552433732313a20617070726f76656420717565727920666f72206e6f6e657860448201526b34b9ba32b73a103a37b5b2b760a11b60648201526084015b60405180910390fd5b506000908152600460205260409020546001600160a01b031690565b600061040982610697565b9050806001600160a01b0316836001600160a01b031614156104775760405162461bcd60e51b815260206004820152602160248201527f4552433732313a20617070726f76616c20746f2063757272656e74206f776e656044820152603960f91b60648201526084016103d9565b336001600160a01b038216148061049357506104938133610293565b6105055760405162461bcd60e51b815260206004820152603860248201527f4552433732313a20617070726f76652063616c6c6572206973206e6f74206f7760448201527f6e6572206e6f7220617070726f76656420666f7220616c6c000000000000000060648201526084016103d9565b61050f8383610dfb565b505050565b61051e3382610e69565b61053a5760405162461bcd60e51b81526004016103d990611df7565b61050f838383610f60565b600061055083610a23565b82106105b25760405162461bcd60e51b815260206004820152602b60248201527f455243373231456e756d657261626c653a206f776e657220696e646578206f7560448201526a74206f6620626f756e647360a81b60648201526084016103d9565b506001600160a01b03919091166000908152600760209081526040808320938352929052205490565b61050f83838360405180602001604052806000815250610ac8565b600061060160095490565b82106106645760405162461bcd60e51b815260206004820152602c60248201527f455243373231456e756d657261626c653a20676c6f62616c20696e646578206f60448201526b7574206f6620626f756e647360a01b60648201526084016103d9565b6009828154811061068557634e487b7160e01b600052603260045260246000fd5b90600052602060002001549050919050565b6000818152600260205260408120546001600160a01b0316806102cc5760405162461bcd60e51b815260206004820152602960248201527f4552433732313a206f776e657220717565727920666f72206e6f6e657869737460448201526832b73a103a37b5b2b760b91b60648201526084016103d9565b600d546040516370a0823160e01b81523360048201526060916000916001600160a01b03909116906370a082319060240160206040518083038186803b15801561075757600080fd5b505afa15801561076b573d6000803e3d6000fd5b505050506040513d601f19601f8201168201806040525081019061078f9190611bc6565b9050620186a0606080600160ff871614156107d65760405180604001604052806006815260200165434f4d4d4f4d60d01b8152509150683635c9adc5dea000009250610854565b8560ff16600214156108165760405180604001604052806008815260200167434f534d4554494360c01b8152509150686c6b935b8bbd4000009250610854565b8560ff166003141561085457604051806040016040528060098152602001684c4547454e4441525960b81b815250915069010f0cf064dd5920000092505b838311156108955760405162461bcd60e51b815260206004820152600e60248201526d62616c616e6365206973206c6f7760901b60448201526064016103d9565b600d546040516323b872dd60e01b81523360048201527309395e698cc8b90d6b7d882919e15085049cfbae6024820152604481018590526001600160a01b03909116906323b872dd90606401602060405180830381600087803b1580156108fb57600080fd5b505af115801561090f573d6000803e3d6000fd5b505050506040513d601f19601f820116820180604052508101906109339190611b5a565b50610942600b80546001019055565b600061094d600b5490565b6040805180820182528281523360208083018281526000868152600f909252939020915182559151600190910180546001600160a01b0319166001600160a01b039092169190911790559091506109a49082611107565b600e6109af82611255565b6040516020016109c0929190611c47565b60405160208183030381529060405291506109db818361136f565b6040805160ff891681526020810183905233917f346186409433061d7ce777932cea218ea1e1d8e7437702c716a3e9a5adb87105910160405180910390a25095945050505050565b60006001600160a01b038216610a8e5760405162461bcd60e51b815260206004820152602a60248201527f4552433732313a2062616c616e636520717565727920666f7220746865207a65604482015269726f206164647265737360b01b60648201526084016103d9565b506001600160a01b031660009081526003602052604090205490565b6060600180546102e190611eb7565b610ac4338383611407565b5050565b610ad23383610e69565b610aee5760405162461bcd60e51b81526004016103d990611df7565b610afa848484846114d6565b50505050565b6000818152600260205260409020546060906001600160a01b0316610b7f5760405162461bcd60e51b815260206004820152602f60248201527f4552433732314d657461646174613a2055524920717565727920666f72206e6f60448201526e3732bc34b9ba32b73a103a37b5b2b760891b60648201526084016103d9565b60008281526010602052604081208054610b9890611eb7565b80601f0160208091040260200160405190810160405280929190818152602001828054610bc490611eb7565b8015610c115780601f10610be657610100808354040283529160200191610c11565b820191906000526020600020905b815481529060010190602001808311610bf457829003601f168201915b5093979650505050505050565b60606000610c2b600b5490565b905060008060005b83811015610c8e5733600f6000610c4b846001611e48565b81526020810191909152604001600020600101546001600160a01b03161415610c7c57610c79600184611e48565b92505b80610c8681611ef2565b915050610c33565b5060008267ffffffffffffffff811115610cb857634e487b7160e01b600052604160045260246000fd5b604051908082528060200260200182016040528015610cfd57816020015b6040805180820190915260008082526020820152815260200190600190039081610cd65790505b50905060005b84811015610dcd5733600f6000610d1b846001611e48565b81526020810191909152604001600020600101546001600160a01b03161415610dbb57600f6000610d4d836001611e48565b81526020808201929092526040908101600020815180830190925280548252600101546001600160a01b0316918101919091528251839085908110610da257634e487b7160e01b600052603260045260246000fd5b6020908102919091010152610db8600184611e48565b92505b80610dc581611ef2565b915050610d03565b50949350505050565b60006001600160e01b0319821663780e9d6360e01b14806102cc57506102cc82611509565b600081815260046020526040902080546001600160a01b0319166001600160a01b0384169081179091558190610e3082610697565b6001600160a01b03167f8c5be1e5ebec7d5bd14f71427d1e84f3dd0314c0f7b2291e5b200ac8c7c3b92560405160405180910390a45050565b6000818152600260205260408120546001600160a01b0316610ee25760405162461bcd60e51b815260206004820152602c60248201527f4552433732313a206f70657261746f7220717565727920666f72206e6f6e657860448201526b34b9ba32b73a103a37b5b2b760a11b60648201526084016103d9565b6000610eed83610697565b9050806001600160a01b0316846001600160a01b03161480610f3457506001600160a01b0380821660009081526005602090815260408083209388168352929052205460ff165b80610f585750836001600160a01b0316610f4d84610364565b6001600160a01b0316145b949350505050565b826001600160a01b0316610f7382610697565b6001600160a01b031614610fd75760405162461bcd60e51b815260206004820152602560248201527f4552433732313a207472616e736665722066726f6d20696e636f72726563742060448201526437bbb732b960d91b60648201526084016103d9565b6001600160a01b0382166110395760405162461bcd60e51b8152602060048201526024808201527f4552433732313a207472616e7366657220746f20746865207a65726f206164646044820152637265737360e01b60648201526084016103d9565b611044838383611559565b61104f600082610dfb565b6001600160a01b0383166000908152600360205260408120805460019290611078908490611e74565b90915550506001600160a01b03821660009081526003602052604081208054600192906110a6908490611e48565b909155505060008181526002602052604080822080546001600160a01b0319166001600160a01b0386811691821790925591518493918716917fddf252ad1be2c89b69c2b068fc378daa952ba7f163c4a11628f55a4df523b3ef91a4505050565b6001600160a01b03821661115d5760405162461bcd60e51b815260206004820181905260248201527f4552433732313a206d696e7420746f20746865207a65726f206164647265737360448201526064016103d9565b6000818152600260205260409020546001600160a01b0316156111c25760405162461bcd60e51b815260206004820152601c60248201527f4552433732313a20746f6b656e20616c7265616479206d696e7465640000000060448201526064016103d9565b6111ce60008383611559565b6001600160a01b03821660009081526003602052604081208054600192906111f7908490611e48565b909155505060008181526002602052604080822080546001600160a01b0319166001600160a01b03861690811790915590518392907fddf252ad1be2c89b69c2b068fc378daa952ba7f163c4a11628f55a4df523b3ef908290a45050565b6060816112795750506040805180820190915260018152600360fc1b602082015290565b8160005b81156112a3578061128d81611ef2565b915061129c9050600a83611e60565b915061127d565b60008167ffffffffffffffff8111156112cc57634e487b7160e01b600052604160045260246000fd5b6040519080825280601f01601f1916602001820160405280156112f6576020820181803683370190505b5090505b8415610f585761130b600183611e74565b9150611318600a86611f0d565b611323906030611e48565b60f81b81838151811061134657634e487b7160e01b600052603260045260246000fd5b60200101906001600160f81b031916908160001a905350611368600a86611e60565b94506112fa565b6000828152600260205260409020546001600160a01b03166113e85760405162461bcd60e51b815260206004820152602c60248201527f4552433732314d657461646174613a2055524920736574206f66206e6f6e657860448201526b34b9ba32b73a103a37b5b2b760a11b60648201526084016103d9565b6000828152601060209081526040909120825161050f928401906118e3565b816001600160a01b0316836001600160a01b031614156114695760405162461bcd60e51b815260206004820152601960248201527f4552433732313a20617070726f766520746f2063616c6c65720000000000000060448201526064016103d9565b6001600160a01b03838116600081815260056020908152604080832094871680845294825291829020805460ff191686151590811790915591519182527f17307eab39ab6107e8899845ad3d59bd9653f200f220920489ca2b5937696c31910160405180910390a3505050565b6114e1848484610f60565b6114ed84848484611564565b610afa5760405162461bcd60e51b81526004016103d990611da5565b60006001600160e01b031982166380ac58cd60e01b148061153a57506001600160e01b03198216635b5e139f60e01b145b806102cc57506301ffc9a760e01b6001600160e01b03198316146102cc565b61050f838383611671565b60006001600160a01b0384163b1561166657604051630a85bd0160e11b81526001600160a01b0385169063150b7a02906115a8903390899088908890600401611cfd565b602060405180830381600087803b1580156115c257600080fd5b505af19250505080156115f2575060408051601f3d908101601f191682019092526115ef91810190611b92565b60015b61164c573d808015611620576040519150601f19603f3d011682016040523d82523d6000602084013e611625565b606091505b5080516116445760405162461bcd60e51b81526004016103d990611da5565b805181602001fd5b6001600160e01b031916630a85bd0160e11b149050610f58565b506001949350505050565b6001600160a01b0383166116cc576116c781600980546000838152600a60205260408120829055600182018355919091527f6e1540171b6c0c960b71a7020d9f60077f6af931a8bbf590da0223dacf75c7af0155565b6116ef565b816001600160a01b0316836001600160a01b0316146116ef576116ef8382611729565b6001600160a01b0382166117065761050f816117c6565b826001600160a01b0316826001600160a01b03161461050f5761050f828261189f565b6000600161173684610a23565b6117409190611e74565b600083815260086020526040902054909150808214611793576001600160a01b03841660009081526007602090815260408083208584528252808320548484528184208190558352600890915290208190555b5060009182526008602090815260408084208490556001600160a01b039094168352600781528383209183525290812055565b6009546000906117d890600190611e74565b6000838152600a60205260408120546009805493945090928490811061180e57634e487b7160e01b600052603260045260246000fd5b90600052602060002001549050806009838154811061183d57634e487b7160e01b600052603260045260246000fd5b6000918252602080832090910192909255828152600a9091526040808220849055858252812055600980548061188357634e487b7160e01b600052603160045260246000fd5b6001900381819060005260206000200160009055905550505050565b60006118aa83610a23565b6001600160a01b039093166000908152600760209081526040808320868452825280832085905593825260089052919091209190915550565b8280546118ef90611eb7565b90600052602060002090601f0160209004810192826119115760008555611957565b82601f1061192a57805160ff1916838001178555611957565b82800160010185558215611957579182015b8281111561195757825182559160200191906001019061193c565b50611963929150611967565b5090565b5b808211156119635760008155600101611968565b80356001600160a01b038116811461199357600080fd5b919050565b6000602082840312156119a9578081fd5b6119b28261197c565b9392505050565b600080604083850312156119cb578081fd5b6119d48361197c565b91506119e26020840161197c565b90509250929050565b6000806000606084860312156119ff578081fd5b611a088461197c565b9250611a166020850161197c565b9150604084013590509250925092565b60008060008060808587031215611a3b578081fd5b611a448561197c565b9350611a526020860161197c565b925060408501359150606085013567ffffffffffffffff80821115611a75578283fd5b818701915087601f830112611a88578283fd5b813581811115611a9a57611a9a611f4d565b604051601f8201601f19908116603f01168101908382118183101715611ac257611ac2611f4d565b816040528281528a6020848701011115611ada578586fd5b82602086016020830137918201602001949094529598949750929550505050565b60008060408385031215611b0d578182fd5b611b168361197c565b91506020830135611b2681611f63565b809150509250929050565b60008060408385031215611b43578182fd5b611b4c8361197c565b946020939093013593505050565b600060208284031215611b6b578081fd5b81516119b281611f63565b600060208284031215611b87578081fd5b81356119b281611f74565b600060208284031215611ba3578081fd5b81516119b281611f74565b600060208284031215611bbf578081fd5b5035919050565b600060208284031215611bd7578081fd5b5051919050565b600060208284031215611bef578081fd5b813560ff811681146119b2578182fd5b60008151808452611c17816020860160208601611e8b565b601f01601f19169290920160200192915050565b60008151611c3d818560208601611e8b565b9290920192915050565b600080845482600182811c915080831680611c6357607f831692505b6020808410821415611c8357634e487b7160e01b87526022600452602487fd5b818015611c975760018114611ca857611cd4565b60ff19861689528489019650611cd4565b60008b815260209020885b86811015611ccc5781548b820152908501908301611cb3565b505084890196505b505050505050611cf4611cee82602f60f81b815260010190565b85611c2b565b95945050505050565b6001600160a01b0385811682528416602082015260408101839052608060608201819052600090611d3090830184611bff565b9695505050505050565b602080825282518282018190526000919060409081850190868401855b82811015611d85578151805185528601516001600160a01b0316868501529284019290850190600101611d57565b5091979650505050505050565b6020815260006119b26020830184611bff565b60208082526032908201527f4552433732313a207472616e7366657220746f206e6f6e20455243373231526560408201527131b2b4bb32b91034b6b83632b6b2b73a32b960711b606082015260800190565b60208082526031908201527f4552433732313a207472616e736665722063616c6c6572206973206e6f74206f6040820152701ddb995c881b9bdc88185c1c1c9bdd9959607a1b606082015260800190565b60008219821115611e5b57611e5b611f21565b500190565b600082611e6f57611e6f611f37565b500490565b600082821015611e8657611e86611f21565b500390565b60005b83811015611ea6578181015183820152602001611e8e565b83811115610afa5750506000910152565b600181811c90821680611ecb57607f821691505b60208210811415611eec57634e487b7160e01b600052602260045260246000fd5b50919050565b6000600019821415611f0657611f06611f21565b5060010190565b600082611f1c57611f1c611f37565b500690565b634e487b7160e01b600052601160045260246000fd5b634e487b7160e01b600052601260045260246000fd5b634e487b7160e01b600052604160045260246000fd5b8015158114611f7157600080fd5b50565b6001600160e01b031981168114611f7157600080fdfea26469706673582212205b1f165243b0f31ad06ded272fce0ba93c98bd8862f0e3c947450620cd5692b164736f6c63430008040033687474703a2f2f33382e3234322e3134362e3132343a383038382f76312f6170692f62697264626f782f6e6674",
  "linkReferences": {},
  "deployedLinkReferences": {}
}