{
  "_format": "hh-sol-artifact-1",
  "contractName": "FBB",
  "sourceName": "contracts/FBB.sol",
  "abi": [
    {
      "inputs": [
        {
          "internalType": "address",
          "name": "fbtToken",
          "type": "address"
        }
      ],
      "stateMutability": "nonpayable",
      "type": "constructor"
    },
    {
      "anonymous": false,
      "inputs": [
        {
          "indexed": true,
          "internalType": "address",
          "name": "owner",
          "type": "address"
        },
        {
          "indexed": true,
          "internalType": "address",
          "name": "approved",
          "type": "address"
        },
        {
          "indexed": true,
          "internalType": "uint256",
          "name": "tokenId",
          "type": "uint256"
        }
      ],
      "name": "Approval",
      "type": "event"
    },
    {
      "anonymous": false,
      "inputs": [
        {
          "indexed": true,
          "internalType": "address",
          "name": "owner",
          "type": "address"
        },
        {
          "indexed": true,
          "internalType": "address",
          "name": "operator",
          "type": "address"
        },
        {
          "indexed": false,
          "internalType": "bool",
          "name": "approved",
          "type": "bool"
        }
      ],
      "name": "ApprovalForAll",
      "type": "event"
    },
    {
      "anonymous": false,
      "inputs": [
        {
          "indexed": true,
          "internalType": "address",
          "name": "to",
          "type": "address"
        },
        {
          "indexed": false,
          "internalType": "uint8",
          "name": "boxType",
          "type": "uint8"
        },
        {
          "indexed": false,
          "internalType": "uint256",
          "name": "tokenId",
          "type": "uint256"
        }
      ],
      "name": "MintBirdBox",
      "type": "event"
    },
    {
      "anonymous": false,
      "inputs": [
        {
          "indexed": true,
          "internalType": "address",
          "name": "from",
          "type": "address"
        },
        {
          "indexed": true,
          "internalType": "address",
          "name": "to",
          "type": "address"
        },
        {
          "indexed": true,
          "internalType": "uint256",
          "name": "tokenId",
          "type": "uint256"
        }
      ],
      "name": "Transfer",
      "type": "event"
    },
    {
      "inputs": [
        {
          "internalType": "address",
          "name": "to",
          "type": "address"
        },
        {
          "internalType": "uint256",
          "name": "tokenId",
          "type": "uint256"
        }
      ],
      "name": "approve",
      "outputs": [],
      "stateMutability": "nonpayable",
      "type": "function"
    },
    {
      "inputs": [
        {
          "internalType": "address",
          "name": "owner",
          "type": "address"
        }
      ],
      "name": "balanceOf",
      "outputs": [
        {
          "internalType": "uint256",
          "name": "",
          "type": "uint256"
        }
      ],
      "stateMutability": "view",
      "type": "function"
    },
    {
      "inputs": [
        {
          "internalType": "uint256",
          "name": "tokenId",
          "type": "uint256"
        }
      ],
      "name": "getApproved",
      "outputs": [
        {
          "internalType": "address",
          "name": "",
          "type": "address"
        }
      ],
      "stateMutability": "view",
      "type": "function"
    },
    {
      "inputs": [],
      "name": "getOwnerNFT",
      "outputs": [
        {
          "components": [
            {
              "internalType": "uint256",
              "name": "tokenId",
              "type": "uint256"
            },
            {
              "internalType": "address payable",
              "name": "owner",
              "type": "address"
            }
          ],
          "internalType": "struct FBB.NFTItem[]",
          "name": "",
          "type": "tuple[]"
        }
      ],
      "stateMutability": "view",
      "type": "function"
    },
    {
      "inputs": [
        {
          "internalType": "address",
          "name": "owner",
          "type": "address"
        },
        {
          "internalType": "address",
          "name": "operator",
          "type": "address"
        }
      ],
      "name": "isApprovedForAll",
      "outputs": [
        {
          "internalType": "bool",
          "name": "",
          "type": "bool"
        }
      ],
      "stateMutability": "view",
      "type": "function"
    },
    {
      "inputs": [
        {
          "internalType": "uint8",
          "name": "boxType",
          "type": "uint8"
        }
      ],
      "name": "mintBirdBox",
      "outputs": [
        {
          "internalType": "string",
          "name": "",
          "type": "string"
        }
      ],
      "stateMutability": "nonpayable",
      "type": "function"
    },
    {
      "inputs": [],
      "name": "name",
      "outputs": [
        {
          "internalType": "string",
          "name": "",
          "type": "string"
        }
      ],
      "stateMutability": "view",
      "type": "function"
    },
    {
      "inputs": [
        {
          "internalType": "uint256",
          "name": "tokenId",
          "type": "uint256"
        }
      ],
      "name": "ownerOf",
      "outputs": [
        {
          "internalType": "address",
          "name": "",
          "type": "address"
        }
      ],
      "stateMutability": "view",
      "type": "function"
    },
    {
      "inputs": [
        {
          "internalType": "address",
          "name": "from",
          "type": "address"
        },
        {
          "internalType": "address",
          "name": "to",
          "type": "address"
        },
        {
          "internalType": "uint256",
          "name": "tokenId",
          "type": "uint256"
        }
      ],
      "name": "safeTransferFrom",
      "outputs": [],
      "stateMutability": "nonpayable",
      "type": "function"
    },
    {
      "inputs": [
        {
          "internalType": "address",
          "name": "from",
          "type": "address"
        },
        {
          "internalType": "address",
          "name": "to",
          "type": "address"
        },
        {
          "internalType": "uint256",
          "name": "tokenId",
          "type": "uint256"
        },
        {
          "internalType": "bytes",
          "name": "_data",
          "type": "bytes"
        }
      ],
      "name": "safeTransferFrom",
      "outputs": [],
      "stateMutability": "nonpayable",
      "type": "function"
    },
    {
      "inputs": [
        {
          "internalType": "address",
          "name": "operator",
          "type": "address"
        },
        {
          "internalType": "bool",
          "name": "approved",
          "type": "bool"
        }
      ],
      "name": "setApprovalForAll",
      "outputs": [],
      "stateMutability": "nonpayable",
      "type": "function"
    },
    {
      "inputs": [
        {
          "internalType": "bytes4",
          "name": "interfaceId",
          "type": "bytes4"
        }
      ],
      "name": "supportsInterface",
      "outputs": [
        {
          "internalType": "bool",
          "name": "",
          "type": "bool"
        }
      ],
      "stateMutability": "view",
      "type": "function"
    },
    {
      "inputs": [],
      "name": "symbol",
      "outputs": [
        {
          "internalType": "string",
          "name": "",
          "type": "string"
        }
      ],
      "stateMutability": "view",
      "type": "function"
    },
    {
      "inputs": [
        {
          "internalType": "uint256",
          "name": "index",
          "type": "uint256"
        }
      ],
      "name": "tokenByIndex",
      "outputs": [
        {
          "internalType": "uint256",
          "name": "",
          "type": "uint256"
        }
      ],
      "stateMutability": "view",
      "type": "function"
    },
    {
      "inputs": [
        {
          "internalType": "address",
          "name": "owner",
          "type": "address"
        },
        {
          "internalType": "uint256",
          "name": "index",
          "type": "uint256"
        }
      ],
      "name": "tokenOfOwnerByIndex",
      "outputs": [
        {
          "internalType": "uint256",
          "name": "",
          "type": "uint256"
        }
      ],
      "stateMutability": "view",
      "type": "function"
    },
    {
      "inputs": [
        {
          "internalType": "uint256",
          "name": "tokenId",
          "type": "uint256"
        }
      ],
      "name": "tokenURI",
      "outputs": [
        {
          "internalType": "string",
          "name": "",
          "type": "string"
        }
      ],
      "stateMutability": "view",
      "type": "function"
    },
    {
      "inputs": [],
      "name": "totalSupply",
      "outputs": [
        {
          "internalType": "uint256",
          "name": "",
          "type": "uint256"
        }
      ],
      "stateMutability": "view",
      "type": "function"
    },
    {
      "inputs": [
        {
          "internalType": "address",
          "name": "from",
          "type": "address"
        },
        {
          "internalType": "address",
          "name": "to",
          "type": "address"
        },
        {
          "internalType": "uint256",
          "name": "tokenId",
          "type": "uint256"
        }
      ],
      "name": "transferFrom",
      "outputs": [],
      "stateMutability": "nonpayable",
      "type": "function"
    }
  ],
  "bytecode": "0x60e060405260236080818152906200203f60a03980516200002991600e91602090910190620000f0565b503480156200003757600080fd5b5060405162002062380380620020628339810160408190526200005a9162000196565b604080518082018252600981526808c8492a48840849eb60bb1b60208083019182528351808501909452600384526223212160e91b908401528151919291620000a691600091620000f0565b508051620000bc906001906020840190620000f0565b5050600c80546001600160a01b039093166001600160a01b03199384168117909155600d8054909316179091555062000203565b828054620000fe90620001c6565b90600052602060002090601f0160209004810192826200012257600085556200016d565b82601f106200013d57805160ff19168380011785556200016d565b828001600101855582156200016d579182015b828111156200016d57825182559160200191906001019062000150565b506200017b9291506200017f565b5090565b5b808211156200017b576000815560010162000180565b600060208284031215620001a8578081fd5b81516001600160a01b0381168114620001bf578182fd5b9392505050565b600181811c90821680620001db57607f821691505b60208210811415620001fd57634e487b7160e01b600052602260045260246000fd5b50919050565b611e2c80620002136000396000f3fe608060405234801561001057600080fd5b50600436106101165760003560e01c80636352211e116100a2578063a22cb46511610071578063a22cb46514610237578063b88d4fde1461024a578063c87b56dd1461025d578063d7895bf014610270578063e985e9c51461028557600080fd5b80636352211e146101f65780636f4385841461020957806370a082311461021c57806395d89b411461022f57600080fd5b806318160ddd116100e957806318160ddd1461019857806323b872dd146101aa5780632f745c59146101bd57806342842e0e146101d05780634f6ccce7146101e357600080fd5b806301ffc9a71461011b57806306fdde0314610143578063081812fc14610158578063095ea7b314610183575b600080fd5b61012e610129366004611a54565b6102c1565b60405190151581526020015b60405180910390f35b61014b6102d2565b60405161013a9190611c68565b61016b610166366004611a8c565b610364565b6040516001600160a01b03909116815260200161013a565b610196610191366004611a0f565b6103fe565b005b6009545b60405190815260200161013a565b6101966101b83660046118c9565b610514565b61019c6101cb366004611a0f565b610545565b6101966101de3660046118c9565b6105db565b61019c6101f1366004611a8c565b6105f6565b61016b610204366004611a8c565b610697565b61014b610217366004611abc565b61070e565b61019c61022a366004611876565b610a1b565b61014b610aa2565b6101966102453660046119d9565b610ab1565b610196610258366004611904565b610ac0565b61014b61026b366004611a8c565b610af8565b610278610c16565b60405161013a9190611c10565b61012e610293366004611897565b6001600160a01b03918216600090815260056020908152604080832093909416825291909152205460ff1690565b60006102cc82610dce565b92915050565b6060600080546102e190611d4d565b80601f016020809104026020016040519081016040528092919081815260200182805461030d90611d4d565b801561035a5780601f1061032f5761010080835404028352916020019161035a565b820191906000526020600020905b81548152906001019060200180831161033d57829003601f168201915b5050505050905090565b6000818152600260205260408120546001600160a01b03166103e25760405162461bcd60e51b815260206004820152602c60248201527f4552433732313a20617070726f76656420717565727920666f72206e6f6e657860448201526b34b9ba32b73a103a37b5b2b760a11b60648201526084015b60405180910390fd5b506000908152600460205260409020546001600160a01b031690565b600061040982610697565b9050806001600160a01b0316836001600160a01b031614156104775760405162461bcd60e51b815260206004820152602160248201527f4552433732313a20617070726f76616c20746f2063757272656e74206f776e656044820152603960f91b60648201526084016103d9565b336001600160a01b038216148061049357506104938133610293565b6105055760405162461bcd60e51b815260206004820152603860248201527f4552433732313a20617070726f76652063616c6c6572206973206e6f74206f7760448201527f6e6572206e6f7220617070726f76656420666f7220616c6c000000000000000060648201526084016103d9565b61050f8383610df3565b505050565b61051e3382610e61565b61053a5760405162461bcd60e51b81526004016103d990611ccd565b61050f838383610f58565b600061055083610a1b565b82106105b25760405162461bcd60e51b815260206004820152602b60248201527f455243373231456e756d657261626c653a206f776e657220696e646578206f7560448201526a74206f6620626f756e647360a81b60648201526084016103d9565b506001600160a01b03919091166000908152600760209081526040808320938352929052205490565b61050f83838360405180602001604052806000815250610ac0565b600061060160095490565b82106106645760405162461bcd60e51b815260206004820152602c60248201527f455243373231456e756d657261626c653a20676c6f62616c20696e646578206f60448201526b7574206f6620626f756e647360a01b60648201526084016103d9565b6009828154811061068557634e487b7160e01b600052603260045260246000fd5b90600052602060002001549050919050565b6000818152600260205260408120546001600160a01b0316806102cc5760405162461bcd60e51b815260206004820152602960248201527f4552433732313a206f776e657220717565727920666f72206e6f6e657869737460448201526832b73a103a37b5b2b760b91b60648201526084016103d9565b600d546040516370a0823160e01b81523360048201526060916000916001600160a01b03909116906370a082319060240160206040518083038186803b15801561075757600080fd5b505afa15801561076b573d6000803e3d6000fd5b505050506040513d601f19601f8201168201806040525081019061078f9190611aa4565b9050620186a0606080600160ff871614156107d65760405180604001604052806006815260200165434f4d4d4f4d60d01b8152509150683635c9adc5dea000009250610854565b8560ff16600214156108165760405180604001604052806008815260200167434f534d4554494360c01b8152509150686c6b935b8bbd4000009250610854565b8560ff166003141561085457604051806040016040528060098152602001684c4547454e4441525960b81b815250915069010f0cf064dd5920000092505b838311156108955760405162461bcd60e51b815260206004820152600e60248201526d62616c616e6365206973206c6f7760901b60448201526064016103d9565b600d546040516323b872dd60e01b81523360048201527309395e698cc8b90d6b7d882919e15085049cfbae6024820152604481018590526001600160a01b03909116906323b872dd90606401602060405180830381600087803b1580156108fb57600080fd5b505af115801561090f573d6000803e3d6000fd5b505050506040513d601f19601f820116820180604052508101906109339190611a38565b50610942600b80546001019055565b600061094d600b5490565b6040805180820182528281523360208083018281526000868152600f909252939020915182559151600190910180546001600160a01b0319166001600160a01b039092169190911790559091506109a490826110ff565b600e816040516020016109b8929190611b28565b60405160208183030381529060405291506109d3818361124d565b6040805160ff891681526020810183905233917f346186409433061d7ce777932cea218ea1e1d8e7437702c716a3e9a5adb87105910160405180910390a25095945050505050565b60006001600160a01b038216610a865760405162461bcd60e51b815260206004820152602a60248201527f4552433732313a2062616c616e636520717565727920666f7220746865207a65604482015269726f206164647265737360b01b60648201526084016103d9565b506001600160a01b031660009081526003602052604090205490565b6060600180546102e190611d4d565b610abc3383836112e5565b5050565b610aca3383610e61565b610ae65760405162461bcd60e51b81526004016103d990611ccd565b610af2848484846113b4565b50505050565b6000818152600260205260409020546060906001600160a01b0316610b775760405162461bcd60e51b815260206004820152602f60248201527f4552433732314d657461646174613a2055524920717565727920666f72206e6f60448201526e3732bc34b9ba32b73a103a37b5b2b760891b60648201526084016103d9565b60008281526010602052604081208054610b9090611d4d565b80601f0160208091040260200160405190810160405280929190818152602001828054610bbc90611d4d565b8015610c095780601f10610bde57610100808354040283529160200191610c09565b820191906000526020600020905b815481529060010190602001808311610bec57829003601f168201915b5093979650505050505050565b60606000610c23600b5490565b905060008060005b83811015610c865733600f6000610c43846001611d1e565b81526020810191909152604001600020600101546001600160a01b03161415610c7457610c71600184611d1e565b92505b80610c7e81611d88565b915050610c2b565b5060008267ffffffffffffffff811115610cb057634e487b7160e01b600052604160045260246000fd5b604051908082528060200260200182016040528015610cf557816020015b6040805180820190915260008082526020820152815260200190600190039081610cce5790505b50905060005b84811015610dc55733600f6000610d13846001611d1e565b81526020810191909152604001600020600101546001600160a01b03161415610db357600f6000610d45836001611d1e565b81526020808201929092526040908101600020815180830190925280548252600101546001600160a01b0316918101919091528251839085908110610d9a57634e487b7160e01b600052603260045260246000fd5b6020908102919091010152610db0600184611d1e565b92505b80610dbd81611d88565b915050610cfb565b50949350505050565b60006001600160e01b0319821663780e9d6360e01b14806102cc57506102cc826113e7565b600081815260046020526040902080546001600160a01b0319166001600160a01b0384169081179091558190610e2882610697565b6001600160a01b03167f8c5be1e5ebec7d5bd14f71427d1e84f3dd0314c0f7b2291e5b200ac8c7c3b92560405160405180910390a45050565b6000818152600260205260408120546001600160a01b0316610eda5760405162461bcd60e51b815260206004820152602c60248201527f4552433732313a206f70657261746f7220717565727920666f72206e6f6e657860448201526b34b9ba32b73a103a37b5b2b760a11b60648201526084016103d9565b6000610ee583610697565b9050806001600160a01b0316846001600160a01b03161480610f2c57506001600160a01b0380821660009081526005602090815260408083209388168352929052205460ff165b80610f505750836001600160a01b0316610f4584610364565b6001600160a01b0316145b949350505050565b826001600160a01b0316610f6b82610697565b6001600160a01b031614610fcf5760405162461bcd60e51b815260206004820152602560248201527f4552433732313a207472616e736665722066726f6d20696e636f72726563742060448201526437bbb732b960d91b60648201526084016103d9565b6001600160a01b0382166110315760405162461bcd60e51b8152602060048201526024808201527f4552433732313a207472616e7366657220746f20746865207a65726f206164646044820152637265737360e01b60648201526084016103d9565b61103c838383611437565b611047600082610df3565b6001600160a01b0383166000908152600360205260408120805460019290611070908490611d36565b90915550506001600160a01b038216600090815260036020526040812080546001929061109e908490611d1e565b909155505060008181526002602052604080822080546001600160a01b0319166001600160a01b0386811691821790925591518493918716917fddf252ad1be2c89b69c2b068fc378daa952ba7f163c4a11628f55a4df523b3ef91a4505050565b6001600160a01b0382166111555760405162461bcd60e51b815260206004820181905260248201527f4552433732313a206d696e7420746f20746865207a65726f206164647265737360448201526064016103d9565b6000818152600260205260409020546001600160a01b0316156111ba5760405162461bcd60e51b815260206004820152601c60248201527f4552433732313a20746f6b656e20616c7265616479206d696e7465640000000060448201526064016103d9565b6111c660008383611437565b6001600160a01b03821660009081526003602052604081208054600192906111ef908490611d1e565b909155505060008181526002602052604080822080546001600160a01b0319166001600160a01b03861690811790915590518392907fddf252ad1be2c89b69c2b068fc378daa952ba7f163c4a11628f55a4df523b3ef908290a45050565b6000828152600260205260409020546001600160a01b03166112c65760405162461bcd60e51b815260206004820152602c60248201527f4552433732314d657461646174613a2055524920736574206f66206e6f6e657860448201526b34b9ba32b73a103a37b5b2b760a11b60648201526084016103d9565b6000828152601060209081526040909120825161050f928401906117c1565b816001600160a01b0316836001600160a01b031614156113475760405162461bcd60e51b815260206004820152601960248201527f4552433732313a20617070726f766520746f2063616c6c65720000000000000060448201526064016103d9565b6001600160a01b03838116600081815260056020908152604080832094871680845294825291829020805460ff191686151590811790915591519182527f17307eab39ab6107e8899845ad3d59bd9653f200f220920489ca2b5937696c31910160405180910390a3505050565b6113bf848484610f58565b6113cb84848484611442565b610af25760405162461bcd60e51b81526004016103d990611c7b565b60006001600160e01b031982166380ac58cd60e01b148061141857506001600160e01b03198216635b5e139f60e01b145b806102cc57506301ffc9a760e01b6001600160e01b03198316146102cc565b61050f83838361154f565b60006001600160a01b0384163b1561154457604051630a85bd0160e11b81526001600160a01b0385169063150b7a0290611486903390899088908890600401611bd3565b602060405180830381600087803b1580156114a057600080fd5b505af19250505080156114d0575060408051601f3d908101601f191682019092526114cd91810190611a70565b60015b61152a573d8080156114fe576040519150601f19603f3d011682016040523d82523d6000602084013e611503565b606091505b5080516115225760405162461bcd60e51b81526004016103d990611c7b565b805181602001fd5b6001600160e01b031916630a85bd0160e11b149050610f50565b506001949350505050565b6001600160a01b0383166115aa576115a581600980546000838152600a60205260408120829055600182018355919091527f6e1540171b6c0c960b71a7020d9f60077f6af931a8bbf590da0223dacf75c7af0155565b6115cd565b816001600160a01b0316836001600160a01b0316146115cd576115cd8382611607565b6001600160a01b0382166115e45761050f816116a4565b826001600160a01b0316826001600160a01b03161461050f5761050f828261177d565b6000600161161484610a1b565b61161e9190611d36565b600083815260086020526040902054909150808214611671576001600160a01b03841660009081526007602090815260408083208584528252808320548484528184208190558352600890915290208190555b5060009182526008602090815260408084208490556001600160a01b039094168352600781528383209183525290812055565b6009546000906116b690600190611d36565b6000838152600a6020526040812054600980549394509092849081106116ec57634e487b7160e01b600052603260045260246000fd5b90600052602060002001549050806009838154811061171b57634e487b7160e01b600052603260045260246000fd5b6000918252602080832090910192909255828152600a9091526040808220849055858252812055600980548061176157634e487b7160e01b600052603160045260246000fd5b6001900381819060005260206000200160009055905550505050565b600061178883610a1b565b6001600160a01b039093166000908152600760209081526040808320868452825280832085905593825260089052919091209190915550565b8280546117cd90611d4d565b90600052602060002090601f0160209004810192826117ef5760008555611835565b82601f1061180857805160ff1916838001178555611835565b82800160010185558215611835579182015b8281111561183557825182559160200191906001019061181a565b50611841929150611845565b5090565b5b808211156118415760008155600101611846565b80356001600160a01b038116811461187157600080fd5b919050565b600060208284031215611887578081fd5b6118908261185a565b9392505050565b600080604083850312156118a9578081fd5b6118b28361185a565b91506118c06020840161185a565b90509250929050565b6000806000606084860312156118dd578081fd5b6118e68461185a565b92506118f46020850161185a565b9150604084013590509250925092565b60008060008060808587031215611919578081fd5b6119228561185a565b93506119306020860161185a565b925060408501359150606085013567ffffffffffffffff80821115611953578283fd5b818701915087601f830112611966578283fd5b81358181111561197857611978611db9565b604051601f8201601f19908116603f011681019083821181831017156119a0576119a0611db9565b816040528281528a60208487010111156119b8578586fd5b82602086016020830137918201602001949094529598949750929550505050565b600080604083850312156119eb578182fd5b6119f48361185a565b91506020830135611a0481611dcf565b809150509250929050565b60008060408385031215611a21578182fd5b611a2a8361185a565b946020939093013593505050565b600060208284031215611a49578081fd5b815161189081611dcf565b600060208284031215611a65578081fd5b813561189081611de0565b600060208284031215611a81578081fd5b815161189081611de0565b600060208284031215611a9d578081fd5b5035919050565b600060208284031215611ab5578081fd5b5051919050565b600060208284031215611acd578081fd5b813560ff81168114611890578182fd5b60008151808452815b81811015611b0257602081850181015186830182015201611ae6565b81811115611b135782602083870101525b50601f01601f19169290920160200192915050565b600080845482600182811c915080831680611b4457607f831692505b6020808410821415611b6457634e487b7160e01b87526022600452602487fd5b818015611b785760018114611b8957611bb5565b60ff19861689528489019650611bb5565b60008b815260209020885b86811015611bad5781548b820152908501908301611b94565b505084890196505b50602f60f81b86526001860198895290970198975050505050505050565b6001600160a01b0385811682528416602082015260408101839052608060608201819052600090611c0690830184611add565b9695505050505050565b602080825282518282018190526000919060409081850190868401855b82811015611c5b578151805185528601516001600160a01b0316868501529284019290850190600101611c2d565b5091979650505050505050565b6020815260006118906020830184611add565b60208082526032908201527f4552433732313a207472616e7366657220746f206e6f6e20455243373231526560408201527131b2b4bb32b91034b6b83632b6b2b73a32b960711b606082015260800190565b60208082526031908201527f4552433732313a207472616e736665722063616c6c6572206973206e6f74206f6040820152701ddb995c881b9bdc88185c1c1c9bdd9959607a1b606082015260800190565b60008219821115611d3157611d31611da3565b500190565b600082821015611d4857611d48611da3565b500390565b600181811c90821680611d6157607f821691505b60208210811415611d8257634e487b7160e01b600052602260045260246000fd5b50919050565b6000600019821415611d9c57611d9c611da3565b5060010190565b634e487b7160e01b600052601160045260246000fd5b634e487b7160e01b600052604160045260246000fd5b8015158114611ddd57600080fd5b50565b6001600160e01b031981168114611ddd57600080fdfea264697066735822122083de8b30e8764bc9b50a8d0a784422ae6549cd55d23094e5cc5fc7f6ce45183564736f6c63430008040033687474703a2f2f3139322e3136382e32322e39302f76312f6170692f62697264626f78",
  "linkReferences": {},
  "deployedLinkReferences": {}
}