{
  "_format": "hh-sol-artifact-1",
  "contractName": "Game",
  "sourceName": "contracts/Game.sol",
  "abi": [
    {
      "inputs": [
        {
          "internalType": "address",
          "name": "fbtToken",
          "type": "address"
        }
      ],
      "stateMutability": "nonpayable",
      "type": "constructor"
    },
    {
      "anonymous": false,
      "inputs": [
        {
          "indexed": false,
          "internalType": "address",
          "name": "_from",
          "type": "address"
        },
        {
          "indexed": false,
          "internalType": "uint256",
          "name": "amount",
          "type": "uint256"
        }
      ],
      "name": "ClaimToken",
      "type": "event"
    },
    {
      "anonymous": false,
      "inputs": [
        {
          "indexed": false,
          "internalType": "address",
          "name": "_to",
          "type": "address"
        },
        {
          "indexed": false,
          "internalType": "uint256",
          "name": "amount",
          "type": "uint256"
        }
      ],
      "name": "UpdateBalances",
      "type": "event"
    },
    {
      "inputs": [
        {
          "internalType": "uint256",
          "name": "amount",
          "type": "uint256"
        }
      ],
      "name": "claimToken",
      "outputs": [],
      "stateMutability": "payable",
      "type": "function"
    },
    {
      "inputs": [
        {
          "internalType": "address",
          "name": "_to",
          "type": "address"
        },
        {
          "internalType": "uint256",
          "name": "amount",
          "type": "uint256"
        }
      ],
      "name": "updateBalance",
      "outputs": [],
      "stateMutability": "nonpayable",
      "type": "function"
    }
  ],
  "bytecode": "0x608060405234801561001057600080fd5b506040516104e63803806104e683398101604081905261002f9161006a565b600180546001600160a01b039092166001600160a01b0319928316811790915560008054831690911790556002805490911633179055610098565b60006020828403121561007b578081fd5b81516001600160a01b0381168114610091578182fd5b9392505050565b61043f806100a76000396000f3fe6080604052600436106100295760003560e01c8063a9e7c2e51461002e578063e0b1cccb14610043575b600080fd5b61004161003c366004610394565b610063565b005b34801561004f57600080fd5b5061004161005e366004610337565b610271565b336000908152600360205260409020548111156100c75760405162461bcd60e51b815260206004820181905260248201527f796f75722062616c616e6365206e6f7420656e6f75676820746f20636c61696d60448201526064015b60405180910390fd5b6001546040516370a0823160e01b81523060048201526000916001600160a01b0316906370a082319060240160206040518083038186803b15801561010b57600080fd5b505afa15801561011f573d6000803e3d6000fd5b505050506040513d601f19601f8201168201806040525081019061014391906103ac565b90508082111561018a5760405162461bcd60e51b81526020600482015260126024820152710c4c2d8c2dcc6ca40dcdee840cadcdeeaced60731b60448201526064016100be565b33600090815260036020526040812080548492906101a99084906103dc565b909155505060015460405163a9059cbb60e01b8152336004820152602481018490526001600160a01b039091169063a9059cbb90604401602060405180830381600087803b1580156101fa57600080fd5b505af115801561020e573d6000803e3d6000fd5b505050506040513d601f19601f82011682018060405250810190610232919061036d565b5060408051338152602081018490527f5d425a3a6a3d5a60fbf147dc6659ce3dfeb701fc44fe90058c32783b8807c57491015b60405180910390a15050565b6002546001600160a01b031633146102cb5760405162461bcd60e51b815260206004820181905260248201527f4f776e61626c653a2063616c6c6572206973206e6f7420746865206f776e657260448201526064016100be565b6001600160a01b038216600090815260036020526040812080548392906102f39084906103c4565b9091555050604080516001600160a01b0384168152602081018390527f9142416a377864404051599268cc3387deb149c15c44be22b0bcac4da13b26969101610265565b60008060408385031215610349578182fd5b82356001600160a01b038116811461035f578283fd5b946020939093013593505050565b60006020828403121561037e578081fd5b8151801515811461038d578182fd5b9392505050565b6000602082840312156103a5578081fd5b5035919050565b6000602082840312156103bd578081fd5b5051919050565b600082198211156103d7576103d76103f3565b500190565b6000828210156103ee576103ee6103f3565b500390565b634e487b7160e01b600052601160045260246000fdfea2646970667358221220cb0161306b7aef4e498b3a0838797faf0ea125de2694bef4a56631d20d112db264736f6c63430008040033",
  "linkReferences": {},
  "deployedLinkReferences": {}
}