{
  "_format": "hh-sol-artifact-1",
  "contractName": "NFT",
  "sourceName": "contracts/NFT.sol",
  "abi": [
    {
      "inputs": [
        {
          "internalType": "address",
          "name": "marketplaceAddress",
          "type": "address"
        },
        {
          "internalType": "address",
          "name": "ftkToken",
          "type": "address"
        }
      ],
      "stateMutability": "nonpayable",
      "type": "constructor"
    },
    {
      "anonymous": false,
      "inputs": [
        {
          "indexed": true,
          "internalType": "address",
          "name": "owner",
          "type": "address"
        },
        {
          "indexed": true,
          "internalType": "address",
          "name": "approved",
          "type": "address"
        },
        {
          "indexed": true,
          "internalType": "uint256",
          "name": "tokenId",
          "type": "uint256"
        }
      ],
      "name": "Approval",
      "type": "event"
    },
    {
      "anonymous": false,
      "inputs": [
        {
          "indexed": true,
          "internalType": "address",
          "name": "owner",
          "type": "address"
        },
        {
          "indexed": true,
          "internalType": "address",
          "name": "operator",
          "type": "address"
        },
        {
          "indexed": false,
          "internalType": "bool",
          "name": "approved",
          "type": "bool"
        }
      ],
      "name": "ApprovalForAll",
      "type": "event"
    },
    {
      "anonymous": false,
      "inputs": [
        {
          "indexed": true,
          "internalType": "address",
          "name": "from",
          "type": "address"
        },
        {
          "indexed": true,
          "internalType": "address",
          "name": "to",
          "type": "address"
        },
        {
          "indexed": true,
          "internalType": "uint256",
          "name": "tokenId",
          "type": "uint256"
        }
      ],
      "name": "Transfer",
      "type": "event"
    },
    {
      "inputs": [
        {
          "internalType": "address",
          "name": "to",
          "type": "address"
        },
        {
          "internalType": "uint256",
          "name": "tokenId",
          "type": "uint256"
        }
      ],
      "name": "approve",
      "outputs": [],
      "stateMutability": "nonpayable",
      "type": "function"
    },
    {
      "inputs": [
        {
          "internalType": "address",
          "name": "owner",
          "type": "address"
        }
      ],
      "name": "balanceOf",
      "outputs": [
        {
          "internalType": "uint256",
          "name": "",
          "type": "uint256"
        }
      ],
      "stateMutability": "view",
      "type": "function"
    },
    {
      "inputs": [
        {
          "internalType": "string",
          "name": "tokenNFTURI",
          "type": "string"
        }
      ],
      "name": "createToken",
      "outputs": [
        {
          "internalType": "uint256",
          "name": "",
          "type": "uint256"
        }
      ],
      "stateMutability": "nonpayable",
      "type": "function"
    },
    {
      "inputs": [
        {
          "internalType": "uint256",
          "name": "tokenId",
          "type": "uint256"
        }
      ],
      "name": "getApproved",
      "outputs": [
        {
          "internalType": "address",
          "name": "",
          "type": "address"
        }
      ],
      "stateMutability": "view",
      "type": "function"
    },
    {
      "inputs": [],
      "name": "getOwnerNFT",
      "outputs": [
        {
          "components": [
            {
              "internalType": "uint256",
              "name": "tokenId",
              "type": "uint256"
            },
            {
              "internalType": "address payable",
              "name": "owner",
              "type": "address"
            }
          ],
          "internalType": "struct NFT.NFTItem[]",
          "name": "",
          "type": "tuple[]"
        }
      ],
      "stateMutability": "view",
      "type": "function"
    },
    {
      "inputs": [
        {
          "internalType": "address",
          "name": "owner",
          "type": "address"
        },
        {
          "internalType": "address",
          "name": "operator",
          "type": "address"
        }
      ],
      "name": "isApprovedForAll",
      "outputs": [
        {
          "internalType": "bool",
          "name": "",
          "type": "bool"
        }
      ],
      "stateMutability": "view",
      "type": "function"
    },
    {
      "inputs": [],
      "name": "name",
      "outputs": [
        {
          "internalType": "string",
          "name": "",
          "type": "string"
        }
      ],
      "stateMutability": "view",
      "type": "function"
    },
    {
      "inputs": [
        {
          "internalType": "uint256",
          "name": "tokenId",
          "type": "uint256"
        }
      ],
      "name": "ownerOf",
      "outputs": [
        {
          "internalType": "address",
          "name": "",
          "type": "address"
        }
      ],
      "stateMutability": "view",
      "type": "function"
    },
    {
      "inputs": [
        {
          "internalType": "address",
          "name": "from",
          "type": "address"
        },
        {
          "internalType": "address",
          "name": "to",
          "type": "address"
        },
        {
          "internalType": "uint256",
          "name": "tokenId",
          "type": "uint256"
        }
      ],
      "name": "safeTransferFrom",
      "outputs": [],
      "stateMutability": "nonpayable",
      "type": "function"
    },
    {
      "inputs": [
        {
          "internalType": "address",
          "name": "from",
          "type": "address"
        },
        {
          "internalType": "address",
          "name": "to",
          "type": "address"
        },
        {
          "internalType": "uint256",
          "name": "tokenId",
          "type": "uint256"
        },
        {
          "internalType": "bytes",
          "name": "_data",
          "type": "bytes"
        }
      ],
      "name": "safeTransferFrom",
      "outputs": [],
      "stateMutability": "nonpayable",
      "type": "function"
    },
    {
      "inputs": [
        {
          "internalType": "address",
          "name": "operator",
          "type": "address"
        },
        {
          "internalType": "bool",
          "name": "approved",
          "type": "bool"
        }
      ],
      "name": "setApprovalForAll",
      "outputs": [],
      "stateMutability": "nonpayable",
      "type": "function"
    },
    {
      "inputs": [
        {
          "internalType": "bytes4",
          "name": "interfaceId",
          "type": "bytes4"
        }
      ],
      "name": "supportsInterface",
      "outputs": [
        {
          "internalType": "bool",
          "name": "",
          "type": "bool"
        }
      ],
      "stateMutability": "view",
      "type": "function"
    },
    {
      "inputs": [],
      "name": "symbol",
      "outputs": [
        {
          "internalType": "string",
          "name": "",
          "type": "string"
        }
      ],
      "stateMutability": "view",
      "type": "function"
    },
    {
      "inputs": [
        {
          "internalType": "uint256",
          "name": "index",
          "type": "uint256"
        }
      ],
      "name": "tokenByIndex",
      "outputs": [
        {
          "internalType": "uint256",
          "name": "",
          "type": "uint256"
        }
      ],
      "stateMutability": "view",
      "type": "function"
    },
    {
      "inputs": [
        {
          "internalType": "address",
          "name": "owner",
          "type": "address"
        },
        {
          "internalType": "uint256",
          "name": "index",
          "type": "uint256"
        }
      ],
      "name": "tokenOfOwnerByIndex",
      "outputs": [
        {
          "internalType": "uint256",
          "name": "",
          "type": "uint256"
        }
      ],
      "stateMutability": "view",
      "type": "function"
    },
    {
      "inputs": [
        {
          "internalType": "uint256",
          "name": "tokenId",
          "type": "uint256"
        }
      ],
      "name": "tokenURI",
      "outputs": [
        {
          "internalType": "string",
          "name": "",
          "type": "string"
        }
      ],
      "stateMutability": "view",
      "type": "function"
    },
    {
      "inputs": [],
      "name": "totalSupply",
      "outputs": [
        {
          "internalType": "uint256",
          "name": "",
          "type": "uint256"
        }
      ],
      "stateMutability": "view",
      "type": "function"
    },
    {
      "inputs": [
        {
          "internalType": "address",
          "name": "from",
          "type": "address"
        },
        {
          "internalType": "address",
          "name": "to",
          "type": "address"
        },
        {
          "internalType": "uint256",
          "name": "tokenId",
          "type": "uint256"
        }
      ],
      "name": "transferFrom",
      "outputs": [],
      "stateMutability": "nonpayable",
      "type": "function"
    }
  ],
  "bytecode": "0x60806040523480156200001157600080fd5b5060405162001d1338038062001d1383398101604081905262000034916200019c565b60408051808201825260098152684d657461766572736560b81b6020808301918252835180850190945260048452631351551560e21b9084015281519192916200008191600091620000d9565b50805162000097906001906020840190620000d9565b5050600c80546001600160a01b039485166001600160a01b031991821617909155600d805493909416928116831790935550600e805490921617905562000210565b828054620000e790620001d3565b90600052602060002090601f0160209004810192826200010b576000855562000156565b82601f106200012657805160ff191683800117855562000156565b8280016001018555821562000156579182015b828111156200015657825182559160200191906001019062000139565b506200016492915062000168565b5090565b5b8082111562000164576000815560010162000169565b80516001600160a01b03811681146200019757600080fd5b919050565b60008060408385031215620001af578182fd5b620001ba836200017f565b9150620001ca602084016200017f565b90509250929050565b600181811c90821680620001e857607f821691505b602082108114156200020a57634e487b7160e01b600052602260045260246000fd5b50919050565b611af380620002206000396000f3fe608060405234801561001057600080fd5b50600436106101165760003560e01c80634f6ccce7116100a2578063a22cb46511610071578063a22cb46514610237578063b88d4fde1461024a578063c87b56dd1461025d578063d7895bf014610270578063e985e9c51461028557600080fd5b80634f6ccce7146101f65780636352211e1461020957806370a082311461021c57806395d89b411461022f57600080fd5b806318160ddd116100e957806318160ddd1461019857806323b872dd146101aa5780632f745c59146101bd57806342842e0e146101d057806345576f94146101e357600080fd5b806301ffc9a71461011b57806306fdde0314610143578063081812fc14610158578063095ea7b314610183575b600080fd5b61012e6101293660046117c7565b6102c1565b60405190151581526020015b60405180910390f35b61014b6102d2565b60405161013a919061193d565b61016b610166366004611845565b610364565b6040516001600160a01b03909116815260200161013a565b61019661019136600461179e565b6103fe565b005b6009545b60405190815260200161013a565b6101966101b83660046116b0565b610514565b61019c6101cb36600461179e565b610545565b6101966101de3660046116b0565b6105db565b61019c6101f13660046117ff565b6105f6565b61019c610204366004611845565b610689565b61016b610217366004611845565b61072a565b61019c61022a36600461165d565b6107a1565b61014b610828565b610196610245366004611764565b610837565b6101966102583660046116eb565b6108fc565b61014b61026b366004611845565b610934565b610278610a52565b60405161013a91906118e5565b61012e61029336600461167e565b6001600160a01b03918216600090815260056020908152604080832093909416825291909152205460ff1690565b60006102cc82610c0a565b92915050565b6060600080546102e190611a22565b80601f016020809104026020016040519081016040528092919081815260200182805461030d90611a22565b801561035a5780601f1061032f5761010080835404028352916020019161035a565b820191906000526020600020905b81548152906001019060200180831161033d57829003601f168201915b5050505050905090565b6000818152600260205260408120546001600160a01b03166103e25760405162461bcd60e51b815260206004820152602c60248201527f4552433732313a20617070726f76656420717565727920666f72206e6f6e657860448201526b34b9ba32b73a103a37b5b2b760a11b60648201526084015b60405180910390fd5b506000908152600460205260409020546001600160a01b031690565b60006104098261072a565b9050806001600160a01b0316836001600160a01b031614156104775760405162461bcd60e51b815260206004820152602160248201527f4552433732313a20617070726f76616c20746f2063757272656e74206f776e656044820152603960f91b60648201526084016103d9565b336001600160a01b038216148061049357506104938133610293565b6105055760405162461bcd60e51b815260206004820152603860248201527f4552433732313a20617070726f76652063616c6c6572206973206e6f74206f7760448201527f6e6572206e6f7220617070726f76656420666f7220616c6c000000000000000060648201526084016103d9565b61050f8383610c2f565b505050565b61051e3382610c9d565b61053a5760405162461bcd60e51b81526004016103d9906119a2565b61050f838383610d94565b6000610550836107a1565b82106105b25760405162461bcd60e51b815260206004820152602b60248201527f455243373231456e756d657261626c653a206f776e657220696e646578206f7560448201526a74206f6620626f756e647360a81b60648201526084016103d9565b506001600160a01b03919091166000908152600760209081526040808320938352929052205490565b61050f838383604051806020016040528060008152506108fc565b6000610606600b80546001019055565b6000610611600b5490565b6040805180820182528281523360208083018281526000868152600f909252939020915182559151600190910180546001600160a01b0319166001600160a01b039092169190911790559091506106689082610f3f565b610672818461108d565b600c546102cc906001600160a01b03166001610837565b600061069460095490565b82106106f75760405162461bcd60e51b815260206004820152602c60248201527f455243373231456e756d657261626c653a20676c6f62616c20696e646578206f60448201526b7574206f6620626f756e647360a01b60648201526084016103d9565b6009828154811061071857634e487b7160e01b600052603260045260246000fd5b90600052602060002001549050919050565b6000818152600260205260408120546001600160a01b0316806102cc5760405162461bcd60e51b815260206004820152602960248201527f4552433732313a206f776e657220717565727920666f72206e6f6e657869737460448201526832b73a103a37b5b2b760b91b60648201526084016103d9565b60006001600160a01b03821661080c5760405162461bcd60e51b815260206004820152602a60248201527f4552433732313a2062616c616e636520717565727920666f7220746865207a65604482015269726f206164647265737360b01b60648201526084016103d9565b506001600160a01b031660009081526003602052604090205490565b6060600180546102e190611a22565b6001600160a01b0382163314156108905760405162461bcd60e51b815260206004820152601960248201527f4552433732313a20617070726f766520746f2063616c6c65720000000000000060448201526064016103d9565b3360008181526005602090815260408083206001600160a01b03871680855290835292819020805460ff191686151590811790915590519081529192917f17307eab39ab6107e8899845ad3d59bd9653f200f220920489ca2b5937696c31910160405180910390a35050565b6109063383610c9d565b6109225760405162461bcd60e51b81526004016103d9906119a2565b61092e84848484611125565b50505050565b6000818152600260205260409020546060906001600160a01b03166109b35760405162461bcd60e51b815260206004820152602f60248201527f4552433732314d657461646174613a2055524920717565727920666f72206e6f60448201526e3732bc34b9ba32b73a103a37b5b2b760891b60648201526084016103d9565b600082815260106020526040812080546109cc90611a22565b80601f01602080910402602001604051908101604052809291908181526020018280546109f890611a22565b8015610a455780601f10610a1a57610100808354040283529160200191610a45565b820191906000526020600020905b815481529060010190602001808311610a2857829003601f168201915b5093979650505050505050565b60606000610a5f600b5490565b905060008060005b83811015610ac25733600f6000610a7f8460016119f3565b81526020810191909152604001600020600101546001600160a01b03161415610ab057610aad6001846119f3565b92505b80610aba81611a5d565b915050610a67565b5060008267ffffffffffffffff811115610aec57634e487b7160e01b600052604160045260246000fd5b604051908082528060200260200182016040528015610b3157816020015b6040805180820190915260008082526020820152815260200190600190039081610b0a5790505b50905060005b84811015610c015733600f6000610b4f8460016119f3565b81526020810191909152604001600020600101546001600160a01b03161415610bef57600f6000610b818360016119f3565b81526020808201929092526040908101600020815180830190925280548252600101546001600160a01b0316918101919091528251839085908110610bd657634e487b7160e01b600052603260045260246000fd5b6020908102919091010152610bec6001846119f3565b92505b80610bf981611a5d565b915050610b37565b50949350505050565b60006001600160e01b0319821663780e9d6360e01b14806102cc57506102cc82611158565b600081815260046020526040902080546001600160a01b0319166001600160a01b0384169081179091558190610c648261072a565b6001600160a01b03167f8c5be1e5ebec7d5bd14f71427d1e84f3dd0314c0f7b2291e5b200ac8c7c3b92560405160405180910390a45050565b6000818152600260205260408120546001600160a01b0316610d165760405162461bcd60e51b815260206004820152602c60248201527f4552433732313a206f70657261746f7220717565727920666f72206e6f6e657860448201526b34b9ba32b73a103a37b5b2b760a11b60648201526084016103d9565b6000610d218361072a565b9050806001600160a01b0316846001600160a01b03161480610d5c5750836001600160a01b0316610d5184610364565b6001600160a01b0316145b80610d8c57506001600160a01b0380821660009081526005602090815260408083209388168352929052205460ff165b949350505050565b826001600160a01b0316610da78261072a565b6001600160a01b031614610e0f5760405162461bcd60e51b815260206004820152602960248201527f4552433732313a207472616e73666572206f6620746f6b656e2074686174206960448201526839903737ba1037bbb760b91b60648201526084016103d9565b6001600160a01b038216610e715760405162461bcd60e51b8152602060048201526024808201527f4552433732313a207472616e7366657220746f20746865207a65726f206164646044820152637265737360e01b60648201526084016103d9565b610e7c8383836111a8565b610e87600082610c2f565b6001600160a01b0383166000908152600360205260408120805460019290610eb0908490611a0b565b90915550506001600160a01b0382166000908152600360205260408120805460019290610ede9084906119f3565b909155505060008181526002602052604080822080546001600160a01b0319166001600160a01b0386811691821790925591518493918716917fddf252ad1be2c89b69c2b068fc378daa952ba7f163c4a11628f55a4df523b3ef91a4505050565b6001600160a01b038216610f955760405162461bcd60e51b815260206004820181905260248201527f4552433732313a206d696e7420746f20746865207a65726f206164647265737360448201526064016103d9565b6000818152600260205260409020546001600160a01b031615610ffa5760405162461bcd60e51b815260206004820152601c60248201527f4552433732313a20746f6b656e20616c7265616479206d696e7465640000000060448201526064016103d9565b611006600083836111a8565b6001600160a01b038216600090815260036020526040812080546001929061102f9084906119f3565b909155505060008181526002602052604080822080546001600160a01b0319166001600160a01b03861690811790915590518392907fddf252ad1be2c89b69c2b068fc378daa952ba7f163c4a11628f55a4df523b3ef908290a45050565b6000828152600260205260409020546001600160a01b03166111065760405162461bcd60e51b815260206004820152602c60248201527f4552433732314d657461646174613a2055524920736574206f66206e6f6e657860448201526b34b9ba32b73a103a37b5b2b760a11b60648201526084016103d9565b6000828152601060209081526040909120825161050f92840190611532565b611130848484610d94565b61113c848484846111b3565b61092e5760405162461bcd60e51b81526004016103d990611950565b60006001600160e01b031982166380ac58cd60e01b148061118957506001600160e01b03198216635b5e139f60e01b145b806102cc57506301ffc9a760e01b6001600160e01b03198316146102cc565b61050f8383836112c0565b60006001600160a01b0384163b156112b557604051630a85bd0160e11b81526001600160a01b0385169063150b7a02906111f79033908990889088906004016118a8565b602060405180830381600087803b15801561121157600080fd5b505af1925050508015611241575060408051601f3d908101601f1916820190925261123e918101906117e3565b60015b61129b573d80801561126f576040519150601f19603f3d011682016040523d82523d6000602084013e611274565b606091505b5080516112935760405162461bcd60e51b81526004016103d990611950565b805181602001fd5b6001600160e01b031916630a85bd0160e11b149050610d8c565b506001949350505050565b6001600160a01b03831661131b5761131681600980546000838152600a60205260408120829055600182018355919091527f6e1540171b6c0c960b71a7020d9f60077f6af931a8bbf590da0223dacf75c7af0155565b61133e565b816001600160a01b0316836001600160a01b03161461133e5761133e8382611378565b6001600160a01b0382166113555761050f81611415565b826001600160a01b0316826001600160a01b03161461050f5761050f82826114ee565b60006001611385846107a1565b61138f9190611a0b565b6000838152600860205260409020549091508082146113e2576001600160a01b03841660009081526007602090815260408083208584528252808320548484528184208190558352600890915290208190555b5060009182526008602090815260408084208490556001600160a01b039094168352600781528383209183525290812055565b60095460009061142790600190611a0b565b6000838152600a60205260408120546009805493945090928490811061145d57634e487b7160e01b600052603260045260246000fd5b90600052602060002001549050806009838154811061148c57634e487b7160e01b600052603260045260246000fd5b6000918252602080832090910192909255828152600a909152604080822084905585825281205560098054806114d257634e487b7160e01b600052603160045260246000fd5b6001900381819060005260206000200160009055905550505050565b60006114f9836107a1565b6001600160a01b039093166000908152600760209081526040808320868452825280832085905593825260089052919091209190915550565b82805461153e90611a22565b90600052602060002090601f01602090048101928261156057600085556115a6565b82601f1061157957805160ff19168380011785556115a6565b828001600101855582156115a6579182015b828111156115a657825182559160200191906001019061158b565b506115b29291506115b6565b5090565b5b808211156115b257600081556001016115b7565b600067ffffffffffffffff808411156115e6576115e6611a8e565b604051601f8501601f19908116603f0116810190828211818310171561160e5761160e611a8e565b8160405280935085815286868601111561162757600080fd5b858560208301376000602087830101525050509392505050565b80356001600160a01b038116811461165857600080fd5b919050565b60006020828403121561166e578081fd5b61167782611641565b9392505050565b60008060408385031215611690578081fd5b61169983611641565b91506116a760208401611641565b90509250929050565b6000806000606084860312156116c4578081fd5b6116cd84611641565b92506116db60208501611641565b9150604084013590509250925092565b60008060008060808587031215611700578081fd5b61170985611641565b935061171760208601611641565b925060408501359150606085013567ffffffffffffffff811115611739578182fd5b8501601f81018713611749578182fd5b611758878235602084016115cb565b91505092959194509250565b60008060408385031215611776578182fd5b61177f83611641565b915060208301358015158114611793578182fd5b809150509250929050565b600080604083850312156117b0578182fd5b6117b983611641565b946020939093013593505050565b6000602082840312156117d8578081fd5b813561167781611aa4565b6000602082840312156117f4578081fd5b815161167781611aa4565b600060208284031215611810578081fd5b813567ffffffffffffffff811115611826578182fd5b8201601f81018413611836578182fd5b610d8c848235602084016115cb565b600060208284031215611856578081fd5b5035919050565b60008151808452815b8181101561188257602081850181015186830182015201611866565b818111156118935782602083870101525b50601f01601f19169290920160200192915050565b6001600160a01b03858116825284166020820152604081018390526080606082018190526000906118db9083018461185d565b9695505050505050565b602080825282518282018190526000919060409081850190868401855b82811015611930578151805185528601516001600160a01b0316868501529284019290850190600101611902565b5091979650505050505050565b602081526000611677602083018461185d565b60208082526032908201527f4552433732313a207472616e7366657220746f206e6f6e20455243373231526560408201527131b2b4bb32b91034b6b83632b6b2b73a32b960711b606082015260800190565b60208082526031908201527f4552433732313a207472616e736665722063616c6c6572206973206e6f74206f6040820152701ddb995c881b9bdc88185c1c1c9bdd9959607a1b606082015260800190565b60008219821115611a0657611a06611a78565b500190565b600082821015611a1d57611a1d611a78565b500390565b600181811c90821680611a3657607f821691505b60208210811415611a5757634e487b7160e01b600052602260045260246000fd5b50919050565b6000600019821415611a7157611a71611a78565b5060010190565b634e487b7160e01b600052601160045260246000fd5b634e487b7160e01b600052604160045260246000fd5b6001600160e01b031981168114611aba57600080fd5b5056fea26469706673582212203a215e954b1dd5807825e12c5d656dcd867ed91678020cf0e214b7e5e5198b1764736f6c63430008040033",
  "linkReferences": {},
  "deployedLinkReferences": {}
}